:100000000C94160A0C94350A0C94350A0C94350A93
:100010000C94350A0C94350A0C94350A0C94350A64
:100020000C94410A0C94350A0C94350A0C94350A48
:100030000C94350A0C94350A0C94350A0C94370A42
:100040000C94350A0C94350A0C94350A0C94350A34
:100050000C94350A0C94350A0C94350A0C94350A24
:100060000C94350A0C94350A0C94350A0C94350A14
:100070000C94350A0C94350A0C94350A0C94350A04
:100080000C94350A0C94350A0C94350A01030507C3
:10009000090E10121416181C1E03040506070A0B7D
:1000A0000C0D0E0F1213141516171A1B1C1D01022E
:1000B000030405060708090A0B0C0D0E0F10111397
:1000C0001415161718191A1B1C1D4188418C4484DD
:1000D00041904684478441944198419C4A844B8492
:1000E0004C844D844E844F84508441A041A441A847
:1000F000548441AC41B041B441B841BC41C041C459
:1001000041C841CC41D061848184A184C184E1840F
:10011000418561858185A185C185E18541866186AD
:100120008186A186C186E186418761878187A18713
:1001300088618862886588688869886A886B887140
:100140008873887488758876887788788879887BBA
:10015000887C887D88818882888588898891889331
:1001600088958896889788A188A288A588A988B547
:1001700088B788C188C588C988E188E288E588E8A9
:1001800088E988EB88F188F388F588F688F788F89D
:1001900088FB88FC88FD89418945894989518953B3
:1001A0008955895689578961896289638965896812
:1001B000896989718973897589768977897B89814C
:1001C000898589898993899589A189A289A589A821
:1001D00089A989AB89AD89B089B189B389B589B756
:1001E00089B889C189C289C589C989CB89D189D38F
:1001F00089D589D789E189E589E989F389F689F77C
:100200008A418A428A458A498A518A538A558A573D
:100210008A618A658A698A738A758A818A828A85EF
:100220008A888A898A8A8A8B8A908A918A938A950F
:100230008A978A988AA18AA28AA58AA98AB68AB741
:100240008AC18AD58AE18AE28AE58AE98AF18AF353
:100250008AF58B418B458B498B618B628B658B68F3
:100260008B698B6A8B718B738B758B778B818BA171
:100270008BA28BA58BA88BA98BAB8BB18BB38BB5CA
:100280008BB78BB88BBC8C618C628C638C658C69F2
:100290008C6B8C718C738C758C768C778C7B8C8151
:1002A0008C828C858C898C918C938C958C968C9778
:1002B0008CA18CA28CA98CE18CE28CE38CE58CE97E
:1002C0008CF18CF38CF58CF68CF78D418D428D453D
:1002D0008D518D558D578D618D658D698D758D769F
:1002E0008D7B8D818DA18DA28DA58DA78DA98DB1C1
:1002F0008DB38DB58DB78DB88DB98DC18DC28DC9BA
:100300008DD68DD78DE18DE28DF78E418E458E494C
:100310008E518E538E578E618E818E828E858E8900
:100320008E908E918E938E958E978E988EA18EA99B
:100330008EB68EB78EC18EC28EC58EC98ED18ED32B
:100340008ED68EE18EE58EE98EF18EF38F418F6130
:100350008F628F658F678F698F6B8F708F718F73CF
:100360008F758F778F7B8FA18FA28FA58FA98FB16C
:100370008FB38FB58FB790619062906390659068EE
:100380009069906A906B9071907390759076907769
:1003900090789079907B907D9081908290859089E3
:1003A0009091909390959096909790A190A290A5FF
:1003B00090A990B190B790E190E290E490E590E937
:1003C00090EB90EC90F190F390F590F690F790FD13
:1003D0009141914291459149915191539155915635
:1003E0009157916191629165916991719173917643
:1003F0009177917A9181918591A191A291A591A9ED
:1004000091AB91B191B391B591B791BC91BD91C1AF
:1004100091C591C991D69241924592499251925378
:1004200092559261926292659269927392759277F7
:1004300092819282928592889289929192939295DA
:10044000929792A192B692C192E192E592E992F1CD
:1004500092F39341934293499351935393579361EA
:10046000936293659369936A936B93719373937596
:1004700093779378937C93819385938993A193A2A7
:1004800093A593A993AB93B193B393B593B793BC4F
:10049000946194629463946594689469946A946B8B
:1004A000946C947094719473947594769477947812
:1004B0009479947D94819482948594899491949371
:1004C00094959496949794A194E194E294E394E59E
:1004D00094E894E994EB94EC94F194F394F594F704
:1004E00094F994FC954195429545954995519553BC
:1004F0009555955695579561956595699576957736
:100500009581958595A195A295A595A895A995AB59
:1005100095AD95B195B395B595B795B995BB95C181
:1005200095C595C995E195F696419645964996519A
:100530009653965596619681968296859689969160
:1005400096939695969796A196B696C196D796E16C
:1005500096E596E996F396F596F79741974597496C
:100560009751975797619762976597689769976BC7
:100570009771977397759777978197A197A297A58A
:1005800097A897A997B197B397B597B697B797B824
:10059000986198629865986998719873987598763B
:1005A0009877987D98819882988598899891989362
:1005B00098959896989798E198E298E598E998EB3D
:1005C00098EC98F198F398F598F698F798FD99417A
:1005D00099429945994999519953995599569957DD
:1005E0009961997699A199A299A599A999B799C163
:1005F00099C999E19A419A459A819A829A859A89EC
:100600009A909A919A979AC19AE19AE59AE99AF101
:100610009AF39AF79B619B629B659B689B699B71B0
:100620009B739B759B819B859B899B919B939BA1B6
:100630009BA59BA99BB19BB39BB59BB79C619C62FF
:100640009C659C699C719C739C759C769C779C783E
:100650009C7C9C7D9C819C829C859C899C919C938C
:100660009C959C969C979CA19CA29CA59CB59CB794
:100670009CE19CE29CE59CE99CF19CF39CF59CF63A
:100680009CF79CFD9D419D429D459D499D519D53DB
:100690009D559D579D619D629D659D699D719D7351
:1006A0009D759D769D779D819D859D939D959DA131
:1006B0009DA29DA59DA99DB19DB39DB59DB79DC1D1
:1006C0009DC59DD79DF69E419E459E499E519E5338
:1006D0009E559E579E619E659E699E739E759E77F0
:1006E0009E819E829E859E899E919E939E959E97B9
:1006F0009EA19EB69EC19EE19EE29EE59EE99EF170
:100700009EF59EF79F419F429F459F499F519F5352
:100710009F559F579F619F629F659F699F719F73C0
:100720009F759F779F789F7B9F7C9FA19FA29FA58E
:100730009FA99FB19FB39FB59FB7A061A062A0651D
:10074000A067A068A069A06AA06BA071A073A07543
:10075000A077A078A07BA07DA081A082A085A089A1
:10076000A091A093A095A096A097A098A0A1A0A2C8
:10077000A0A9A0B7A0E1A0E2A0E5A0E9A0EBA0F1AC
:10078000A0F3A0F5A0F7A0F8A0FDA141A142A145CA
:10079000A149A151A153A155A156A157A161A1629F
:1007A000A165A169A175A176A177A179A181A1A176
:1007B000A1A2A1A4A1A5A1A9A1ABA1B1A1B3A1B5D9
:1007C000A1B7A1C1A1C5A1D6A1D7A241A245A24965
:1007D000A253A255A257A261A265A269A273A275F3
:1007E000A281A282A283A285A288A289A28AA28BC8
:1007F000A291A293A295A297A29BA29DA2A1A2A51B
:10080000A2A9A2B3A2B5A2C1A2E1A2E5A2E9A34115
:10081000A345A349A351A355A361A365A369A371EC
:10082000A375A3A1A3A2A3A5A3A8A3A9A3ABA3B1A6
:10083000A3B3A3B5A3B6A3B7A3B9A3BBA461A46292
:10084000A463A464A465A468A469A46AA46BA46C4A
:10085000A471A473A475A477A47BA481A482A485A5
:10086000A489A491A493A495A496A497A49BA4A1BD
:10087000A4A2A4A5A4B3A4E1A4E2A4E5A4E8A4E9E5
:10088000A4EBA4F1A4F3A4F5A4F7A4F8A541A54210
:10089000A545A548A549A551A553A555A556A557B4
:1008A000A561A562A565A569A573A575A576A577BA
:1008B000A57BA581A585A5A1A5A2A5A3A5A5A5A95B
:1008C000A5B1A5B3A5B5A5B7A5C1A5C5A5D6A5E1F3
:1008D000A5F6A641A642A645A649A651A653A661DD
:1008E000A665A681A682A685A688A689A68AA68BC5
:1008F000A691A693A695A697A69BA69CA6A1A6A9F7
:10090000A6B6A6C1A6E1A6E2A6E5A6E9A6F7A74176
:10091000A745A749A751A755A757A761A762A765EC
:10092000A769A771A773A775A7A1A7A2A7A5A7A93C
:10093000A7ABA7B1A7B3A7B5A7B7A7B8A7B9A86131
:10094000A862A865A869A86BA871A873A875A876FD
:10095000A877A87DA881A882A885A889A891A8932E
:10096000A895A896A897A8A1A8A2A8B1A8E1A8E2CE
:10097000A8E5A8E8A8E9A8F1A8F5A8F6A8F7A9416C
:10098000A957A961A962A971A973A975A976A977BF
:10099000A9A1A9A2A9A5A9A9A9B1A9B3A9B7AA4121
:1009A000AA61AA77AA81AA82AA85AA89AA91AA95E8
:1009B000AA97AB41AB57AB61AB65AB69AB71AB739E
:1009C000ABA1ABA2ABA5ABA9ABB1ABB3ABB5ABB76E
:1009D000AC61AC62AC64AC65AC68AC69AC6AAC6B85
:1009E000AC71AC73AC75AC76AC77AC7BAC81AC82E3
:1009F000AC85AC89AC91AC93AC95AC96AC97ACA102
:100A0000ACA2ACA5ACA9ACB1ACB3ACB5ACB7ACC105
:100A1000ACC5ACC9ACD1ACD7ACE1ACE2ACE3ACE4B6
:100A2000ACE5ACE8ACE9ACEBACECACF1ACF3ACF500
:100A3000ACF6ACF7ACFCAD41AD42AD45AD49AD5106
:100A4000AD53AD55AD56AD57AD61AD62AD65AD6958
:100A5000AD71AD73AD75AD76AD77AD81AD85AD8959
:100A6000AD97ADA1ADA2ADA3ADA5ADA9ADABADB1F7
:100A7000ADB3ADB5ADB7ADBBADC1ADC2ADC5ADC923
:100A8000ADD7ADE1ADE5ADE9ADF1ADF5ADF6AE415A
:100A9000AE45AE49AE51AE53AE55AE61AE62AE6537
:100AA000AE69AE71AE73AE75AE77AE81AE82AE8515
:100AB000AE88AE89AE91AE93AE95AE97AE99AE9B31
:100AC000AE9CAEA1AEB6AEC1AEC2AEC5AEC9AED1E1
:100AD000AED7AEE1AEE2AEE5AEE9AEF1AEF3AEF565
:100AE000AEF7AF41AF42AF49AF51AF55AF57AF616E
:100AF000AF62AF65AF69AF6AAF71AF73AF75AF7714
:100B0000AFA1AFA2AFA5AFA8AFA9AFB0AFB1AFB320
:100B1000AFB5AFB7AFBCB061B062B064B065B0693B
:100B2000B071B073B076B077B07DB081B082B0856F
:100B3000B089B091B093B096B097B0B7B0E1B0E2E1
:100B4000B0E5B0E9B0EBB0F1B0F3B0F6B0F7B14159
:100B5000B145B149B157B1A1B1A2B1A5B1A8B1A9EF
:100B6000B1ABB1B1B1B3B1B7B1C1B1C2B1C5B1D619
:100B7000B1E1B1F6B241B245B249B251B253B2613C
:100B8000B281B282B285B289B291B293B297B2A168
:100B9000B2B6B2C1B2E1B2E5B357B361B362B36505
:100BA000B369B36BB370B371B373B381B385B389F6
:100BB000B391B3A1B3A2B3A5B3A9B3B1B3B3B3B562
:100BC000B3B7B461B462B465B466B467B469B46A07
:100BD000B46BB470B471B473B475B476B477B47BD9
:100BE000B47CB481B482B485B489B491B493B4951F
:100BF000B496B497B4A1B4A2B4A5B4A9B4ACB4B13A
:100C0000B4B3B4B5B4B7B4BBB4BDB4C1B4C5B4C95E
:100C1000B4D3B4E1B4E2B4E5B4E6B4E8B4E9B4EA18
:100C2000B4EBB4F1B4F3B4F4B4F5B4F6B4F7B4F887
:100C3000B4FAB4FCB541B542B545B549B551B55363
:100C4000B555B557B561B562B563B565B569B56BF1
:100C5000B56CB571B573B574B575B576B577B57B4B
:100C6000B57CB57DB581B585B589B591B593B5959B
:100C7000B596B5A1B5A2B5A5B5A9B5AAB5ABB5ADA3
:100C8000B5B0B5B1B5B3B5B5B5B7B5B9B5C1B5C200
:100C9000B5C5B5C9B5D1B5D3B5D5B5D6B5D7B5E117
:100CA000B5E2B5E5B5F1B5F5B5F7B641B642B6452D
:100CB000B649B651B653B655B657B661B662B665C3
:100CC000B669B671B673B675B677B681B682B685B3
:100CD000B689B68AB68BB691B693B695B697B6A1D5
:100CE000B6A2B6A5B6A9B6B1B6B3B6B6B6B7B6C1D2
:100CF000B6C2B6C5B6C9B6D1B6D3B6D7B6E1B6E2B6
:100D0000B6E5B6E9B6F1B6F3B6F5B6F7B741B74210
:100D1000B745B749B751B753B755B757B759B76183
:100D2000B762B765B769B76FB771B773B775B7779C
:100D3000B778B779B77AB77BB77CB77DB781B78516
:100D4000B789B791B795B7A1B7A2B7A5B7A9B7AA01
:100D5000B7ABB7B0B7B1B7B3B7B5B7B6B7B7B7B842
:100D6000B7BCB861B862B865B867B868B869B86B3D
:100D7000B871B873B875B876B877B878B881B882F2
:100D8000B885B889B891B893B895B896B897B8A10E
:100D9000B8A2B8A5B8A7B8A9B8B1B8B7B8C1B8C50E
:100DA000B8C9B8E1B8E2B8E5B8E9B8EBB8F1B8F35A
:100DB000B8F5B8F7B8F8B941B942B945B949B95128
:100DC000B953B955B957B961B965B969B971B97349
:100DD000B976B977B981B9A1B9A2B9A5B9A9B9ABA1
:100DE000B9B1B9B3B9B5B9B7B9B8B9B9B9BDB9C17C
:100DF000B9C2B9C9B9D3B9D5B9D7B9E1B9F6B9F753
:100E0000BA41BA45BA49BA51BA53BA55BA57BA6192
:100E1000BA62BA65BA77BA81BA82BA85BA89BA8A29
:100E2000BA8BBA91BA93BA95BA97BAA1BAB6BAC1FF
:100E3000BAE1BAE2BAE5BAE9BAF1BAF3BAF5BB4136
:100E4000BB45BB49BB51BB61BB62BB65BB69BB71E9
:100E5000BB73BB75BB77BBA1BBA2BBA5BBA8BBA922
:100E6000BBABBBB1BBB3BBB5BBB7BBB8BBBBBBBC00
:100E7000BC61BC62BC65BC67BC69BC6CBC71BC734A
:100E8000BC75BC76BC77BC81BC82BC85BC89BC917E
:100E9000BC93BC95BC96BC97BCA1BCA5BCB7BCE13F
:100EA000BCE2BCE5BCE9BCF1BCF3BCF5BCF6BCF7EC
:100EB000BD41BD57BD61BD76BDA1BDA2BDA5BDA94A
:100EC000BDB1BDB3BDB5BDB7BDB9BDC1BDC2BDC965
:100ED000BDD6BDE1BDF6BE41BE45BE49BE51BE5305
:100EE000BE77BE81BE82BE85BE89BE91BE93BE97CF
:100EF000BEA1BEB6BEB7BEE1BF41BF61BF71BF7587
:100F0000BF77BFA1BFA2BFA5BFA9BFB1BFB3BFB7C6
:100F1000BFB8BFBDC061C062C065C067C069C071F5
:100F2000C073C075C076C077C078C081C082C085EC
:100F3000C089C091C093C095C096C097C0A1C0A5FC
:100F4000C0A7C0A9C0B1C0B7C0E1C0E2C0E5C0E958
:100F5000C0F1C0F3C0F5C0F6C0F7C141C142C14500
:100F6000C149C151C153C155C157C161C165C176A4
:100F7000C181C185C197C1A1C1A2C1A5C1A9C1B18A
:100F8000C1B3C1B5C1B7C1C1C1C5C1C9C1D7C241D2
:100F9000C245C249C251C253C255C257C261C27191
:100FA000C281C282C285C289C291C293C295C297D0
:100FB000C2A1C2B6C2C1C2C5C2E1C2E5C2E9C2F1A4
:100FC000C2F3C2F5C2F7C341C345C349C351C357B6
:100FD000C361C362C365C369C371C373C375C37798
:100FE000C3A1C3A2C3A5C3A8C3A9C3AAC3B1C3B3A2
:100FF000C3B5C3B7C461C462C465C469C471C473F2
:10100000C475C477C481C482C485C489C491C4939F
:10101000C495C496C497C4A1C4A2C4B7C4E1C4E231
:10102000C4E5C4E8C4E9C4F1C4F3C4F5C4F6C4F724
:10103000C541C542C545C549C551C553C555C55727
:10104000C561C565C569C571C573C575C576C57703
:10105000C581C5A1C5A2C5A5C5A9C5B1C5B3C5B53D
:10106000C5B7C5C1C5C2C5C5C5C9C5D1C5D7C5E107
:10107000C5F7C641C649C661C681C682C685C6894E
:10108000C691C693C695C697C6A1C6A5C6A9C6B73A
:10109000C6C1C6D7C6E1C6E2C6E5C6E9C6F1C6F313
:1010A000C6F5C6F7C741C745C749C751C761C7623B
:1010B000C765C769C771C773C777C7A1C7A2C7A5E7
:1010C000C7A9C7B1C7B3C7B5C7B7C861C862C86544
:1010D000C869C86AC871C873C875C876C877C88136
:1010E000C882C885C889C891C893C895C896C8974A
:1010F000C8A1C8B7C8E1C8E2C8E5C8E9C8EBC8F1EB
:10110000C8F3C8F5C8F6C8F7C941C942C945C949B5
:10111000C951C953C955C957C961C965C976C9817A
:10112000C985C9A1C9A2C9A5C9A9C9B1C9B3C9B548
:10113000C9B7C9BCC9C1C9C5C9E1CA41CA45CA55AF
:10114000CA57CA61CA81CA82CA85CA89CA91CA9362
:10115000CA95CA97CAA1CAB6CAC1CAE1CAE2CAE553
:10116000CAE9CAF1CAF3CAF7CB41CB45CB49CB5147
:10117000CB57CB61CB62CB65CB68CB69CB6BCB71EB
:10118000CB73CB75CB81CB85CB89CB91CB93CBA1CB
:10119000CBA2CBA5CBA9CBB1CBB3CBB5CBB7CC61D5
:1011A000CC62CC63CC65CC69CC6BCC71CC73CC7588
:1011B000CC76CC77CC7BCC81CC82CC85CC89CC91C5
:1011C000CC93CC95CC96CC97CCA1CCA2CCE1CCE264
:1011D000CCE5CCE9CCF1CCF3CCF5CCF6CCF7CD41D9
:1011E000CD42CD45CD49CD51CD53CD55CD57CD6116
:1011F000CD65CD69CD71CD73CD76CD77CD81CD89DE
:10120000CD93CD95CDA1CDA2CDA5CDA9CDB1CDB359
:10121000CDB5CDB7CDC1CDD7CE41CE45CE61CE6512
:10122000CE69CE73CE75CE81CE82CE85CE88CE8964
:10123000CE8BCE91CE93CE95CE97CEA1CEB7CEE12A
:10124000CEE5CEE9CEF1CEF5CF41CF45CF49CF5156
:10125000CF55CF57CF61CF65CF69CF71CF73CF75E2
:10126000CFA1CFA2CFA5CFA9CFB1CFB3CFB5CFB7A5
:10127000D061D062D065D069D06ED071D073D07596
:10128000D077D081D082D085D089D091D093D0959D
:10129000D096D097D0A1D0B7D0E1D0E2D0E5D0E9B8
:1012A000D0EBD0F1D0F3D0F5D0F7D141D142D14538
:1012B000D149D151D153D155D157D161D162D165E5
:1012C000D169D171D173D175D176D177D181D185E1
:1012D000D189D193D1A1D1A2D1A5D1A9D1AED1B17A
:1012E000D1B3D1B5D1B7D1BBD1C1D1C2D1C5D1C98B
:1012F000D1D5D1D7D1E1D1E2D1E5D1F5D1F7D241E4
:10130000D242D245D249D253D255D257D261D265B8
:10131000D269D273D275D281D282D285D289D28E4D
:10132000D291D295D297D2A1D2A5D2A9D2B1D2B719
:10133000D2C1D2C2D2C5D2C9D2D7D2E1D2E2D2E58D
:10134000D2E9D2F1D2F3D2F5D2F7D341D342D34589
:10135000D349D351D355D357D361D362D365D36720
:10136000D368D369D36AD371D373D375D377D37B5F
:10137000D381D385D389D391D393D397D3A1D3A248
:10138000D3A5D3A9D3B1D3B3D3B5D3B7000001024A
:10139000030405060708090A0B0C0D0E0F101112A5
:1013A0001300000001020304050000060708090AF3
:1013B0000B00000C0D0E0F1011000012131415007D
:1013C000000102030405060708090A0B0C0D0E0FA5
:1013D00010001112131415161718191A1B0000000B
:1013E00000000000000001030303010204040402E2
:1013F00001030000050505050505050506070707A6
:10140000060607070706060705000002000201029C
:10141000010203000201030301020103030101634E
:1014200064696E6F70737578585B000011241FBE7D
:10143000CFEFD0E1DEBFCDBF12E0A0E0B1E0ECED38
:10144000F9E400E00BBF02C007900D92AE3EB10779
:10145000D9F715E0AEEEB2E001C01D92AB30B10796
:10146000E1F70E94670A0C94EC240C9400001F9290
:101470000F920FB60F9211240F900FBE0F901F9076
:1014800018951F920F920FB60F9211240F900FBE56
:101490000F901F90189581EB87BB88BB80E884BBB9
:1014A00080E681BB82BB80EC809362000895089542
:1014B00008950895AF9A80EA9FE00197F1F70895A3
:1014C0000E944B0A0E94770C0E948A0C08952F926A
:1014D0003F924F925F926F927F928F929F92AF92C4
:1014E000BF92CF92DF92EF92FF920F931F93DF9301
:1014F000CF93CDB7DEB7C050D1400FB6F894DEBF62
:101500000FBECDBF8EE99CE06AE97CE00E94291EF7
:101510000E94600AAF9A80EA9FE00197F1F706996E
:10152000C6C10E94C10D882371F000D08DE291E008
:10153000ADB7BEB712969C938E9311970E94751EFD
:101540000F900F90FFCF0E94B111882309F0A3C123
:1015500021E9C22ED12CCC0EDD1E2E010894411C97
:10156000511C95E3692E712C6C0E7D1E85E1282E91
:10157000312C2C0E3D1E81E791E00E94A20CEE243E
:10158000FF240E949A0C182F0E949E0CF601EE0D6B
:10159000FF1D1083C7010894E11CF11C1D3089F761
:1015A000FC01EC0DFD1D10828DB79EB708970FB69C
:1015B000F8949EBF0FBE8DBFEDB7FEB73196ADB7A5
:1015C000BEB71296DC92CE9211978EEA91E0938389
:1015D000828355824482778266820E94BC1EADB7A8
:1015E000BEB718960FB6F894BEBF0FBEADBF00973A
:1015F00011F28130910509F458C08230910509F04B
:10160000BACF8DA9823209F4C9C0C2016DE172E07E
:101610000E94EA1D892B09F41DC1C2016BE472E02E
:101620000E94EA1D892B09F0A6CFC3010E94581918
:101630008C01009709F44DC100D000D000D0E0E546
:10164000F2E0ADB7BEB71296FC93EE931197FC0192
:1016500080819181A281B381EDB7FEB783839483AA
:10166000A583B6830E94751E8DB79EB706960FB6EA
:10167000F8949EBF0FBE8DBF02C00E949E0CC80191
:101680000E9418118F3FC9F700D0E8EBF1E0ADB729
:10169000BEB71296FC93EE9311970E94751E0F90A1
:1016A0000F90C8010E94C21266CFC20164EB71E0C4
:1016B0000E94EA1D892B09F064C000D088EB91E0FC
:1016C000EDB7FEB7928381830E94751E0F900F9035
:1016D0000E94F20FA30191010E94CC147B018C01A6
:1016E000611571058105910509F477C08824992455
:1016F000AA24BB2432C00894811C911C00D0EBEBBF
:10170000F1E0ADB7BEB71296FC93EE9311970E942D
:10171000751E0F900F9000D000D0EBECF1E0ADB74C
:10172000BEB71296FC93EE93119714967C926E922C
:1017300013970E94751E0F900F900F900F90C80185
:10174000B701A30191010E94C6127B018C016115B2
:1017500071058105910509F444C088A184FDCBCFB2
:101760000894A11CB11C00D0E3ECF1E0ADB7BEB70A
:101770001296FC93EE9311970E94751E0F900F9096
:10178000CACFC2016DEF71E00E94EA1D892B09F0FA
:1017900045C00E94F20F0E947916EDCEC601B3013A
:1017A0000E940F1EBC016F5F7F4FC3010E94081E85
:1017B000D3010D900020E9F71197A619B709A230BF
:1017C000B10508F422CFFD013197E60DF71D8081A8
:1017D000823209F01ACF108218CF88249924AA24C3
:1017E000BB2400D000D000D0EDB7FEB7319681ED1C
:1017F00091E0ADB7BEB712969C938E931197B382CA
:10180000A282958284820E94751EADB7BEB71696DD
:101810000FB6F894BEBF0FBEADBFADCEC20162E041
:1018200072E00E94EA1D892B09F0A5CEC3010E9437
:101830002A1200D000D086E092E0EDB7FEB7928386
:101840008183748263820E94751E0F900F900F90A7
:101850000F9091CEC3010E945F1A882371F400D0CB
:10186000E0E2F2E0ADB7BEB71296FC93EE931197AB
:101870000E94751E0F900F907ECE00D0E7E3F2E03D
:10188000ADB7BEB71296FC93EE9311970E94751EEA
:101890000F900F9070CE00D087E791E0EDB7FEB7C4
:1018A000928381830E94751E0F900F90FFCF80E07E
:1018B00091E00E94871E0699FECF80E090E020E430
:1018C0003CE9F9013197F1F7019684319105C9F7A7
:1018D00028CE00D0ECE6F2E0ADB7BEB71296FC938E
:1018E000EE9311970E94751E0F900F9044CEC19AEF
:1018F00087B3866087BBBB9880E58DB981E08EB9E0
:101900000895BB9A80E48DB908958FB9779BFECF77
:101910008FB1089586E0809395001092900080E149
:1019200089B988E18AB9599A08958BB1881F8827A7
:10193000881F08955F9BFECF8CB108955D9BFECFFD
:101940008CB90895FC018081882339F05D9BFECF1E
:101950008CB9818131968823C9F70895982F929583
:101960009F708F709A3058F05D9BFECF995C9CB948
:101970008A3058F45D9BFECF805D8CB908955D9BE5
:10198000FECF905D9CB98A30A8F35D9BFECF895C49
:101990008CB908950F931F938C01812F992787FD90
:1019A0009A950E94AE0C802F0E94AE0C1F910F9151
:1019B0000895DF92EF92FF920F931F93D82E7A0132
:1019C0008B0180640E94850C812F9927AA27BB2751
:1019D0000E94850CC801AA27BB270E94850CBB2743
:1019E000A12F902F8F2D0E94850C8E2D0E94850C8B
:1019F000DD20E9F485E90E94850C10E08FEF0E945C
:101A0000850C8F3F61F01F910F91FF90EF90DF9059
:101A100008951F5F8FEF0E94850C8F3FA1F719304B
:101A2000C1F71F910F91FF90EF90DF90089588E02C
:101A3000D81629F08FEF0E94850C10E0EBCF87E8D5
:101A40000E94850C10E0E6CFCF92DF92EF92FF92DA
:101A50000F931F93CF93DF936B017C018A01C09892
:101A60008091EE0282FD07C039E0CC0CDD1CEE1C3B
:101A7000FF1C3A95D1F788E1B701A6010E94D90C65
:101A8000882361F0C09A982F892FDF91CF911F9101
:101A90000F91FF90EF90DF90CF9008958FEF0E940D
:101AA000850C8EEF0E94850CC0E0D0E0F80181919A
:101AB0008F010E94850C2196F2E0C030DF07B1F75C
:101AC0008FEF0E94850C8FEF0E94850C8FEF0E9494
:101AD000850C982F8F71853011F0C09AD5CF8FEF7C
:101AE0000E94850C8823D9F3C09A8FEF0E94850C41
:101AF00090E0CACFCF92DF92EF92FF920F931F93A5
:101B0000CF93DF936B017C018A01C0988091EE0234
:101B100082FD07C049E0CC0CDD1CEE1CFF1C4A9581
:101B2000D1F781E1B701A6010E94D90CF82E8823D4
:101B300031F58FEF0E94850C8E3FD9F7C0E0D0E0E1
:101B40008FEF0E94850CF80181938F012196F2E0BE
:101B5000C030DF07A9F78FEF0E94850C8FEF0E943E
:101B6000850CC09A8FEF0E94850C8F2DDF91CF914D
:101B70001F910F91FF90EF90DF90CF900895C09A42
:101B8000F4CF0F931F93B89AC09A10E08FEF0E9482
:101B9000850C1F5F1A30D1F70DB1802F83608DB98E
:101BA000C09880E040E050E060E070E00E94D90C16
:101BB000813071F011E080E040E050E060E070E0E2
:101BC0000E94D90C1F5F163109F49DC0813099F72E
:101BD0001092EE0288E04AEA51E060E070E00E9474
:101BE000D90C82FD43C08FEF0E94850C8FEF0E94BD
:101BF000850C8FEF0E94850C8FEF0E94850C8A3A2E
:101C000009F090C08091EE0282608093EE0210E0B5
:101C100019C087E340E050E060E070E00E94D90C1A
:101C20008091EE0281FD38C040E050E060E070E05D
:101C300089E20E94D90C153199F080FF32C01F5FF4
:101C40008091EE0290E083709070892B11F781E013
:101C500040E050E060E070E00E94D90C153169F777
:101C6000C09A0DB98CEF1F910F91089587E340E062
:101C700050E060E070E00E94D90C89E240E050E062
:101C800060E070E00E94D90C82FD43C08091EE02BA
:101C900081608093EE02BBCF40E050E060E070E4F2
:101CA000C7CF8091EE0281FF17C08AE340E050E089
:101CB00060E070E00E94D90C8823C1F58FEF0E948C
:101CC000850C86FD29C08FEF0E94850C8FEF0E9446
:101CD000850C8FEF0E94850C8BE340E050E060E0C4
:101CE00070E00E94D90C80E140E052E060E070E0DA
:101CF0000E94D90CC09A0DB98FEF0E94850C80E02C
:101D00001F910F910895C09A0DB98FEF1F910F91F8
:101D100008958091EE027BCF8091EE0284608093E3
:101D2000EE02D1CFC09A0DB98DEFEACFC09A0DB9AE
:101D30008BEFE6CF7F928F929F92AF92BF92CF921E
:101D4000DF92EF92FF920F931F93DF93CF93CDB764
:101D5000DEB760970FB6F894DEBF0FBECDBF4C0163
:101D600089E1F40111928A95E9F7C0988AE040E090
:101D700050E060E070E00E94D90C782E882309F0D2
:101D8000BEC08FEF0E94850C8E3FD9F76E0108947C
:101D9000C11CD11C8601B1E1EB2EF12CEC0EFD1E15
:101DA0008FEF0E94850CF80181938F01EE15FF05DE
:101DB000B9F78FEF0E94850C8FEF0E94850C898107
:101DC000F40180838A819B8192838183D40114965C
:101DD000FE01349685E001900D928150E1F78985EE
:101DE000F40180832A8530E040E050E0522F442700
:101DF000332722278B8590E0A0E0B0E0DC01992713
:101E00008827282B392B4A2B5B2B8D8590E0A0E06F
:101E1000B0E0282B392B4A2B5B2B8C8590E0A0E07F
:101E2000B0E0BA2FA92F982F8827282B392B4A2BBF
:101E30005B2B23873487458756878E858295807FE5
:101E40009F85292F22952F70822B87879F70908BDB
:101E500089E040E050E060E070E00E94D90C782E0C
:101E6000882309F04CC08FEF0E94850C8E3FD9F774
:101E70008FEF0E94850CF60181936F01E017F10747
:101E8000B9F78FEF0E94850C8FEF0E94850C80912F
:101E9000EE0282FF4AC0888590E0A0E0B0E08F7338
:101EA0009070A070B070AC0133272227998580E034
:101EB000AA2797FDA095BA2F282B392B4A2B5B2BED
:101EC0008A8590E0A0E0B0E0282B392B4A2B5B2BD1
:101ED0002F5F3F4F4F4F5F4F59016A01A60160E0EE
:101EE00070E080E090E003E10E94001CF401218B8F
:101EF000328B438B548B658B768B878B908FC09AFC
:101F0000872D60960FB6F894DEBF0FBECDBFCF9180
:101F1000DF911F910F91FF90EF90DF90CF90BF90D6
:101F2000AF909F908F907F90089529852295269558
:101F30002695237030E0E885F0E0EE0FFF1FEE0FEE
:101F4000FF1F2E2B3F2BEF81F0E0E370F070FE2F90
:101F5000EE27FF0FFF0F2E2B3F2B442737FD409519
:101F6000542F2F5F3F4F4F4F5F4FAE81AF70B0E0A8
:101F70001296EA85F0E0E370F070EE0FFF1F1B850C
:101F8000111F1127111F1E2BA10FB11D04C0220FFD
:101F9000331F441F551FAA95D2F7F401218B328BB2
:101FA000438B548B158A168A178A108EA8CF2091DE
:101FB000FD023091FE024091FF0250910003621B2E
:101FC000730B840B950B2091EF023091F00240E0EF
:101FD00050E00E94B21C2E5F3F4F4F4F5F4FB90140
:101FE000CA0108956091E3027091E4028091E502D4
:101FF0009091E6020895CF93DF93EC011C861D8635
:102000001E861F862C813D814E815F8122303105E5
:102010004105510508F16091EF027091F00280E0F6
:1020200090E022503040404050400E947F1C9B0175
:10203000AC018091FD029091FE02A091FF02B0914F
:102040000003820F931FA41FB51F88879987AA8753
:10205000BB87DF91CF91089520E030E040E050E071
:10206000E8CF8FEF0895CF93DF9361157105810558
:10207000910581F520E030E040E050E0C8E0D0E09C
:102080008091F9029091FA02A091FB02B091FC02BA
:10209000280F391F4A1F5B1FCA01B90141E053E0F5
:1020A0000E947A0DCF5FDC4F288139814A815B81A4
:1020B0005F702F3F8FEF38078FEF48078FE058078B
:1020C00021F42FEF3FEF4FEF5FEFB901CA01DF912E
:1020D000CF910895DC01CB01880F991FAA1FBB1F68
:1020E000880F991FAA1FBB1F9C01AD0169E056957F
:1020F0004795379527956A95D1F7EC01D170C0CFF8
:10210000AF92BF92CF92DF92EF92FF920F931F9305
:10211000CF93DF93EC012C853D854E855F858881CB
:102120009981AA81BB81281739074A075B0770F09C
:1021300020E030E0C901DF91CF911F910F91FF9016
:10214000EF90DF90CF90BF90AF900895688579852C
:102150008A859B85AE014F5E5F4F0E947A0D4C854C
:102160005D856E857F8540505E4F6F4F7F4F4C87FA
:102170005D876E877F8788819981AA81BB81481797
:1021800059076A077B0730F09C0120503E4F241B03
:10219000350BD0CFE884F9840A851B85C801B701C7
:1021A0000E94D70F5B016C010894E11CF11C011D1A
:1021B000111DC801B7010E94D70FA616B706C806A1
:1021C000D90639F4E886F9860A871B8720E032E0D1
:1021D000B1CFC601B5010E9433106230710581058F
:1021E000910508F162507040804090402091EF02CC
:1021F0003091F00240E050E00E947F1C9B01AC0156
:102200008091FD029091FE02A091FF02B091000327
:10221000820F931FA41FB51F88879987AA87BB8742
:1022200020E032E087CF20E030E040E050E0E8CF2F
:102230008F929F92AF92BF92CF92DF92EF92FF92D6
:102240000F931F93CF93DF93EC012C853D854E8533
:102250005F8588819981AA81BB81281739074A0740
:102260005B0710F5EFEFCE2EE1E0DE2EC222D32287
:10227000C114D104D9F02F5F3F4F4F4F5F4F2C87D0
:102280003D874E875F87CC0EDD1EF6018189DF9189
:10229000CF911F910F91FF90EF90DF90CF90BF9063
:1022A000AF909F908F9008958FEFF1CF68857985DB
:1022B0008A859B85AE014F5E5F4F0E947A0DE88450
:1022C000F9840A851B85C801B7010E94D70F4B010D
:1022D0005C010894E11CF11C011D111DC801B7012E
:1022E0000E94D70F86169706A806B90649F4E88615
:1022F000F9860A871B872C853D854E855F85BBCF78
:10230000C501B4010E943310623071058105910549
:1023100018F162507040804090402091EF0230915F
:10232000F00240E050E00E947F1C9B01AC018091D4
:10233000FD029091FE02A091FF02B0910003820F76
:10234000931FA41FB51F88879987AA87BB872C85F1
:102350003D854E855F858FCF20E030E040E050E046
:10236000E6CFAF92BF92CF92DF92EF92FF920F93A0
:102370001F9360E070E080E090E041E053E00E9455
:102380007A0DA090C704B090C804C090C904D09042
:10239000CA048091C3048B3051F08FEF1F910F91CD
:1023A000FF90EF90DF90CF90BF90AF900895C6015F
:1023B000B50141E053E00E947A0D80910E038093B5
:1023C000EF021092F00280912D0390912E03A091C4
:1023D0002F03B09130038093F1029093F202A09307
:1023E000F302B093F402209125033091260340912B
:1023F0002703509128032093F5023093F60240936F
:10240000F7025093F802E0900F03F090100300E001
:1024100010E0EA0CFB1C0C1D1D1DE092F902F0926D
:10242000FA020093FB021093FC026091110370E02A
:1024300080E090E00E947F1CE60EF71E081F191F27
:10244000E092FD02F092FE020093FF02109300035F
:1024500080E0A4CF4F925F926F927F928F929F9273
:10246000AF92BF92CF92DF92EF92FF920F931F93A2
:10247000CF93DF932C016090F1027090F202809074
:10248000F3029090F40282E06816710481049104D2
:1024900008F46CC0C091EF02D091F002BE0180E060
:1024A00090E0A401930122503040404050400E94EF
:1024B0007F1CA090FD02B090FE02C090FF02D09061
:1024C0000003A60EB71EC81ED91ECC2309F457C0A0
:1024D00086017501C801B70141E053E00E947A0D01
:1024E000E1E0F3E001C0B0968081882319F1853ED8
:1024F00029F083858F3011F083FD2FC084E0E13E09
:10250000F80789F70894E11CF11C011D111D9E2D8F
:102510009A198091EF029817E8F2C401B3010E9462
:1025200033103B014C01C091EF02D091F0025701F2
:102530006801CBCFF2011082DF91CF911F910F91F3
:10254000FF90EF90DF90CF90BF90AF909F908F90D3
:102550007F906F905F904F900895D2018BE0019033
:102560000D928150E1F7F2011386E6CFC091EF02A0
:10257000D091F00260E070E080E090E09ACF8601B8
:102580007501CBCF0E94811D80E008952F923F926C
:102590004F925F926F927F928F929F92AF92BF9273
:1025A000CF92DF92EF92FF920F931F93DF93CF931F
:1025B000CDB7DEB7C056D0400FB6F894DEBF0FBE21
:1025C000CDBF6F965FAF4EAF6F97A0962FAFA0971E
:1025D000A1963FAFA1974B015C0135E0B694A7945B
:1025E000979487943A95D1F72FE1F22EF622F3943F
:1025F000C501B4010E94D70F2B013C0120E1F21666
:1026000009F473C1DD241E010894211C311CC5018D
:10261000B40141E053E00E947A0D0F2D10E0000F4D
:10262000111F02951295107F1027007F10270F5F52
:102630001C4F8FE08F1508F44EC0F801808188236D
:1026400009F48BC0CF2C0EC023FFA7C0C3942FE08A
:102650002C1508F440C0005E1F4FF80180818823CC
:1026600009F47BC0853E91F3F80123852F3061F793
:1026700087FDECCF90E08F7390702AE130E0829F6D
:10268000A001839F500D929F500D11244A5150403C
:10269000DD2009F45AC02CE830E0D101A40FB51FA9
:1026A000F9018491F801E80FF11D80818C939181EB
:1026B00011969C931197882311F4992339F22F5F77
:1026C0003F4F1296F0E029393F0751F7C3942FE0AE
:1026D0002C1508F0C0CFC501B4010E94D70F7B01B3
:1026E0008C010894811C911CA11CB11CC501B40172
:1026F0000E94D70FE616F7060807190721F1C30154
:10270000B2010E9433102B013C016230710581053A
:10271000910508F437C1625070408040904020918C
:10272000EF023091F00240E050E00E947F1C809068
:10273000FD029090FE02A090FF02B0900003860E72
:10274000971EA81EB91EFF2462CFF1012CE511923D
:102750002A95E9F7DD24D3949ECF20E030E040E0D5
:1027600050E0B901CA01C05ADF4F0FB6F894DEBF7E
:102770000FBECDBFCF91DF911F910F91FF90EF90D2
:10278000DF90CF90BF90AF909F908F907F906F9091
:102790005F904F903F902F900895F1E0DF1689F5FC
:1027A0003E010894611C711C7301DD248DE5482EE7
:1027B000512C4C0E5D1E0DC0F301ED0DF11D8083FB
:1027C000D39422E030E0E20EF31EE414F50409F4A1
:1027D000C3C0F70180819181009709F4B9C08038A6
:1027E000910550F30E94FB1BF301ED0DF11D908349
:1027F0009D2D9F5FF301E90FF11D8083D92ED394A6
:10280000E0CF3E010894611C711C8DE0F301119230
:102810008A95E9F7EE24FF24DE2CF801EE0DFF1D6A
:102820008081803279F090E00E94D91DF301EE0D95
:10283000FF1D8083D3940894E11CF11CF8E0EF168F
:10284000F10451F7F80180858032F9F0F301ED0DC4
:10285000F11D8EE280835D2C53947801F3E0DF0E4E
:10286000F7018085803289F090E00E94D91DF30144
:10287000E50DF11D80830894E11CF11C5D1429F025
:102880005394F7018085803279F76F968EAD9FADB6
:102890006F97B3010E94081EA0968FADA097A196D6
:1028A0009FADA1979C01D901F80180E201900D92A2
:1028B0008150E1F7A5019401220F331F441F551FDA
:1028C000220F331F441F551F220F331F441F551F54
:1028D000220F331F441F551F220F331F441F551F44
:1028E0002C0D311D411D511D3CCF0894811C911CA4
:1028F000A11CB11CC501B4010E94D70F4616570692
:102900006806790619F1C301B2010E9433102B0148
:102910003C016230710581059105C8F1625070403B
:10292000804090402091EF023091F00240E050E072
:102930000E947F1C8090FD029090FE02A090FF02FA
:10294000B0900003860E971EA81EB91EFF245ACE13
:10295000F301ED0DF11D10826F968EAD9FAD6F9757
:10296000B3010E94081EA0968FADA097A1969FADBF
:10297000A1979C01D901F80180E201900D9281504C
:10298000E1F798CF60E070E080E090E0D0CE60E0CA
:1029900070E080E090E0CECF2F923F924F925F9216
:1029A0006F927F928F929F92AF92BF92CF92DF925F
:1029B000EF92FF920F931F93DF93CF93CDB7DEB7C4
:1029C000C056D0400FB6F894DEBF0FBECDBF1B017E
:1029D0002C016F965FAF4EAF6F97A0962FAFA09769
:1029E000A1963FAFA197EE24ACE5DA2E5E010894E4
:1029F000A11CB11C22E0221631044104510408F448
:102A0000A6C00091EF021091F002C201B101625024
:102A1000704080409040980140E050E00E947F1C50
:102A20009B01AC016091FD027091FE028091FF025A
:102A300090910003002309F455C139014A01660E43
:102A4000771E881E991EFF24C401B30141E053E0A4
:102A50000E947A0D01E013E0CC2409C093FF80C0EE
:102A6000C39420E1C21609F43EC0005E1F4FF80176
:102A70008081882309F44BC0853E91F393859F3074
:102A800069F787FDEDCF90E08F7390702AE130E019
:102A9000829FA001839F500D929F500D11244A5197
:102AA0005040EE2061F12CE830E0D501A40FB51FB5
:102AB000F9018491F801E80FF11D80818C939181D7
:102AC00011969C931197882311F4992349F22F5F53
:102AD0003F4F1296F0E029393F0751F7C39420E1A8
:102AE000C21609F0C2CFF3948091EF02F81608F0F5
:102AF000F9C00894611C711C811C911CA5CFF501C3
:102B00002D2D11922A95E9F7EE24E394CCCF20E005
:102B100030E040E050E0B901CA01C05ADF4F0FB6C3
:102B2000F894DEBF0FBECDBFCF91DF911F910F9103
:102B3000FF90EF90DF90CF90BF90AF909F908F90DD
:102B40007F906F905F904F903F902F9008950091ED
:102B5000EF021091F00220E030E040E050E062CF60
:102B6000F1E0EF1689F55E010894A11CB11C750116
:102B7000DD24FDE54F2E512C4C0E5D1E0DC0F501E0
:102B8000ED0DF11D8083D39422E030E0E20EF31EC0
:102B9000E414F50409F490C0F70180819181009755
:102BA00009F486C08038910550F30E94FB1BF501A3
:102BB000ED0DF11D90839D2D9F5FF501E90FF11D36
:102BC0008083D92ED394E0CF5E010894A11CB11C60
:102BD0008DE0F50111928A95E9F7EE24FF24DE2CB1
:102BE000F801EE0DFF1D8081803279F090E00E94A7
:102BF000D91DF501EE0DFF1D8083D3940894E11CCF
:102C0000F11CF8E0EF16F10451F7F80180858032ED
:102C1000F9F0F501ED0DF11D8EE280835D2C5394EA
:102C20007801F3E0DF0EF7018085803289F090E0D3
:102C30000E94D91DF501E50DF11D80830894E11C6A
:102C4000F11C5D1429F05394F7018085803279F7E7
:102C50006F968EAD9FAD6F97B5010E94081EA0962E
:102C60008FADA097A1969FADA1979C01D901F801C6
:102C700080E201900D928150E1F7A4019301220FAF
:102C8000331F441F551F220F331F441F551F220F90
:102C9000331F441F551F220F331F441F551F220F80
:102CA000331F441F551F2C0D311D411D511D33CFA6
:102CB000F501ED0DF11D10826F968EAD9FAD6F97F2
:102CC000B5010E94081EA0968FADA097A1969FAD5A
:102CD000A1979C01D901F80180E201900D928150E9
:102CE000E1F7CBCFC201B1010E9433101B012C01CF
:102CF00081CE2F923F924F925F926F927F928F92EE
:102D00009F92AF92BF92CF92DF92EF92FF920F937A
:102D10001F93DF93CF93CDB7DEB7CC57D0400FB61C
:102D2000F894DEBF0FBECDBF7B018C0100D080E8E0
:102D300092E0ADB7BEB712969C938E9311970E9406
:102D4000751E0F900F9041E2242E312C2C0E3D1E4B
:102D5000C801B701A1019E012F5F3F4F0E94CC1413
:102D60006B017C01611571058105910509F4C0C0F5
:102D7000442455246624772432C00894411C511CF5
:102D800000D024EA32E0EDB7FEB7328321830E94FF
:102D9000751E0F900F9000D000D0E8EBF2E0ADB7B9
:102DA000BEB71296FC93EE93119714963C922E9216
:102DB00013970E94751E0F900F900F900F90C701F0
:102DC000B601A1019E012F5F3F4F0E94C6126B0109
:102DD0007C01611571058105910509F48DC09A8802
:102DE000882489899401280F311DB888AA248F85E9
:102DF0008501080F111DEDB7FEB738970FB6F8948F
:102E0000FEBF0FBEEDBF319684E892E0ADB7BEB70E
:102E100012969C938E931197832F869590E08454FD
:102E2000984F93838283C901807E91709695879590
:102E3000929582958F7089279F7089278483158248
:102E40002F71268317820E94751EEDB7FEB731964B
:102E500024E932E0ADB7BEB712963C932E9311979A
:102E6000812F86958695869582831382C801807E00
:102E7000977096958795929582958F7089279F7008
:102E80008927848315820F71000F068317820E94A1
:102E9000751E8C85ADB7BEB718960FB6F894BEBF39
:102EA0000FBEADBF84FD69CF0894611C711C00D0BA
:102EB00000D000D0E1EBF2E0ADB7BEB71296FC93C4
:102EC000EE9311978D8D9E8DAF8DB8A1EDB7FEB7A6
:102ED00083839483A583B6830E94751E2DB73EB766
:102EE0002A5F3F4F0FB6F8943EBF0FBE2DBF53CFA2
:102EF000442455246624772400D08EEB92E0ADB7AD
:102F0000BEB712969C938E9311970E94751E00D0A7
:102F100000D0EDB7FEB7319681EC92E0ADB7BEB709
:102F200012969C938E93119773826282558244828B
:102F30000E94751EEDB7FEB736960FB6F894FEBF29
:102F40000FBEEDBFC458DF4F0FB6F894DEBF0FBE03
:102F5000CDBFCF91DF911F910F91FF90EF90DF9048
:102F6000CF90BF90AF909F908F907F906F905F9029
:102F70004F903F902F9008952F923F924F925F92E3
:102F80006F927F928F929F92AF92BF92CF92DF9279
:102F9000EF92FF920F931F93DF93CF93CDB7DEB7DE
:102FA000C456D0400FB6F894DEBF0FBECDBFA19679
:102FB0006CAF7DAF8EAF9FAFA197A3965FAF4EAFC3
:102FC000A397A4962FAFA497A5963FAFA5973324B8
:102FD0005E010894A11CB11C6DE5462E512C4C0ECF
:102FE0005D1EA1968CAD9DADAEADBFADA197029714
:102FF000A105B10508F42FC10091EF021091F00274
:10300000A1966CAD7DAD8EAD9FADA1976250704025
:1030100080409040980140E050E00E947F1C9B015E
:10302000AC016091FD027091FE028091FF029091CF
:103030000003002309F427C139014A01660E771EF7
:10304000881E991E2224C401B30141E053E00E946E
:103050007A0D51E0C52E53E0D52ED6018C918823F0
:1030600009F451C0853E09F43FC01B969C919F30E6
:1030700009F464C093FD38C0B1E03B1609F09FC06D
:103080008501FF240AC0F501EF0DF11D8083F39443
:103090000E5F1F4F04151505E1F0F8018081918145
:1030A000009709F4CAC08038910568F30E94FB1BA1
:1030B000F501EF0DF11D90839F2D9F5FF501E90F45
:1030C000F11D8083F92EF3940E5F1F4F0415150533
:1030D00021F73324C501A3966EAD7FADA3970E945F
:1030E000EA1D892B09F4C0C021EEC21624E0D206E5
:1030F00009F459C080E290E0C80ED91ED6018C9127
:10310000882309F0AFCF8FEFCC59DF4F0FB6F8947B
:10311000DEBF0FBECDBFCF91DF911F910F91FF900A
:10312000EF90DF90CF90BF90AF909F908F907F9067
:103130006F905F904F903F902F90089587FDD4CF70
:1031400090E08F739070EAE1F0E08E9FA0018F9F76
:10315000500D9E9F500D11244A515040332009F4C8
:1031600072C02CE830E0D501A40FB51FF90184919D
:10317000F601E80FF11D80818C93918111969C934B
:103180001197882319F4992309F4AECF2F5F3F4F8D
:103190001296F0E029393F0749F721EEC21624E0E4
:1031A000D20609F0A7CF23948091EF02281608F0E9
:1031B0006AC00894611C711C811C911C44CFD5010C
:1031C000EDE01D92EA95E9F700E010E0F02EF6013F
:1031D000E00FF11F8081803269F090E00E94D91DDC
:1031E000F501E00FF11F8083F3940F5F1F4F08304C
:1031F000110561F7D60118968C91803209F46ACFD7
:10320000F501EF0DF11DBEE2B083EF2CE3948601D2
:10321000E4E0FE0E90E00E94D91DF501EE0DF11DD7
:103220008083E394EF1409F455CFD80119968C915B
:103230000F5F1F4F803271F74DCFF501EF0DF11D7C
:103240001082332447CFD501ECE51D92EA95E9F7CA
:103250003324339486CF0091EF021091F00220E0E6
:1032600030E040E050E0DDCEA4968FADA497A59667
:103270009FADA5979C01D901F60180E201900D92C6
:103280008150E1F741CFA1966CAD7DAD8EAD9FAD84
:10329000A1970E943310A1966CAF7DAF8EAF9FAF08
:1032A000A1976F5F7F4F8F4F9F4F09F09ACE2BCF23
:1032B0004F925F926F927F928F929F92AF92BF9246
:1032C000CF92DF92EF92FF920F931F93DF93CF93F2
:1032D000CDB7DEB7CC57D0400FB6F894DEBF0FBEE7
:1032E000CDBF4C01DC018C918C3509F4D2C0A0908B
:1032F000E302B090E402C090E502D090E602E1E281
:103300006E2E712C6C0E7D1E2E010894411C511CDA
:1033100034C0870108191909C301B401A8010E942A
:10332000E11D060D171DD8011C92C601B501A301B0
:1033300092010E94BC17882361F58C8584FF29C007
:103340008D899E89A0E0B0E06C01BB24AA248B8DFE
:103350009C8DA0E0B0E0A80EB91ECA1EDB1EA11411
:10336000B104C104D10429F4F2E0AF2EB12CC12C78
:10337000D12C47010894811C911CC4016CE570E0BC
:103380000E94FD1D7C01009721F6F40180818823B5
:10339000D9F400E010E0C801C458DF4F0FB6F8942C
:1033A000DEBF0FBECDBFCF91DF911F910F91FF9078
:1033B000EF90DF90CF90BF90AF909F908F907F90D5
:1033C0006F905F904F900895C601B501A4019E01D2
:1033D0002F5F3F4F0E94BC178823D9F68C8584FD50
:1033E000D8CF81E192E00E94D41C5C018C018D8DCC
:1033F0009E8DAF8DB8A1F50180839183A283B383A5
:103400008D899E89A0E0B0E07C01DD24CC248B8DE9
:103410009C8DA0E0B0E0C80ED91EEA1EFB1ED501AF
:103420001496CD92DD92ED92FC921797B2E0CB16F6
:10343000D104E104F104F0F18EEF9FEFAFEFBFEFA5
:10344000C80ED91EEA1EFB1E2091EF023091F00239
:1034500040E050E0C701B6010E947F1C9B01AC0117
:103460008091FD029091FE02A091FF02B0910003B5
:10347000820F931FA41FB51FF50180879187A28734
:10348000B387D5011C961D921D921D921C921F9709
:1034900082CFA090F102B090F202C090F302D090DF
:1034A000F4020894811C911CF4018081882309F0A6
:1034B00026CF6FCF20E030E040E050E0D1CF4F92F8
:1034C0005F926F927F928F929F92AF92BF92CF92B4
:1034D000DF92EF92FF920F931F93DF93CF93CDB7BD
:1034E000DEB7CC57D0400FB6F894DEBF0FBECDBFCD
:1034F0004C01FC0180818C3509F46BC0C090E30263
:10350000D090E402E090E502F090E60231E2632E12
:10351000712C6C0E7D1E2E010894411C511C34C070
:10352000850108191909C301B401A8010E94E11D10
:10353000060D171DF8011082C701B601A301920103
:103540000E94BC17882361F58C8584FF29C08D8972
:103550009E89A0E0B0E07C01DD24CC248B8D9C8D85
:10356000A0E0B0E0C80ED91EEA1EFB1EC114D104B3
:10357000E104F10429F442E0C42ED12CE12CF12C19
:1035800045010894811C911CC4016CE570E00E9407
:10359000FD1D5C01009721F6F40180818823C1F5AF
:1035A0008FEFC458DF4F0FB6F894DEBF0FBECDBF0C
:1035B000CF91DF911F910F91FF90EF90DF90CF900F
:1035C000BF90AF909F908F907F906F905F904F9043
:1035D0000895C090F102D090F202E090F302F090D2
:1035E000F4020894811C911CF4018081882309F065
:1035F0008DCFC114D104E104F10491F2C092E30231
:10360000D092E402E092E502F092E60280E0C9CFB7
:10361000C701B601A4019E012F5F3F4F0E94BC1756
:10362000882309F0BDCF8C8584FFBACF8D899E8910
:10363000A0E0B0E07C01DD24CC248B8D9C8DA0E04B
:10364000B0E0C80ED91EEA1EFB1EC114D104E1046D
:10365000F104A1F602E0C02ED12CE12CF12CCECF4A
:103660009C01815A904B8E559841E8F4422F50E0CE
:10367000415451448EE5389FC0011124480F591F11
:10368000440F551FCA01805D9E4FFC012491922F6B
:1036900080E04F5C5E4FFA012491E22FF0E0E82BCE
:1036A000F92BCF010895E0E0F0E0CF0108951F93DA
:1036B000CF93DF93DC016EE279E040E050E008C098
:1036C000892B29F1AE014F5F5F4F64177507F8F042
:1036D000EA01C60FD71FD695C795CE01880F991F4F
:1036E000FC01E05DFE4F24918F5C9E4FFC01149124
:1036F000322F20E0CD01821B930B811B910997FF94
:10370000DFCFBE01615070406417750708F7F9E01C
:10371000CE32DF07B9F0CE016EE570E00E949E1C4C
:1037200060557F4F362F2227CE016EE570E00E9454
:103730009E1C8F559F4F282B392BC901DF91CF91AC
:103740001F910895EAECF0E060E070E006C06F5F62
:103750007F4F32966333710569F0849190E08A1748
:103760009B07A9F79B012F553B45C901DF91CF91DD
:103770001F91089520E230E2C901DF91CF911F919E
:1037800008959C0120503C4AC9016CE472E00E94FB
:103790009E1C6CE170E00E949E1CE9E9F0E0E60FDF
:1037A000F11D4491C9016CE170E00E949E1CEEEA9B
:1037B000F0E0E80FF11DE491C9016CE472E00E94B1
:1037C0009E1C70E06E5F7F4F762F6627770F770F16
:1037D00070688E2F90E0682B792B842F90E0880FF3
:1037E000991F82959295907F9827807F9827682BC4
:1037F000792BCB0108950E94C11B0E94571B08958D
:10380000EF92FF920F93DF93CF93CDB7DEB7609720
:103810000FB6F894DEBF0FBECDBFA82F002309F46A
:1038200061C07E010894E11CF11C88E0F70111924F
:103830008A95E9F729833A834B835C836D837E8382
:10384000AF83988780E2801BE82FFF27E7FDF09584
:1038500049815A816B817C81181684F019861A86F9
:103860001B861C86882799278E1B9F0B04C0440F3C
:10387000551F661F771F8A95D2F728C0202F332740
:1038800027FD3095DB01CA01022E04C0880F991F65
:10389000AA1FBB1F0A94D2F789879A87AB87BC8778
:1038A00004C07695679557954795EA95D2F78D812F
:1038B0009E81AF81B88504C0880F991FAA1FBB1FC6
:1038C0002A95D2F7482B592B6A2B7B2B4D875E8785
:1038D0006F87788B29853A854B855C856D857E85DC
:1038E000AF8598898A2F60960FB6F894DEBF0FBE19
:1038F000CDBFCF91DF910F91FF90EF900895629F20
:10390000D001739FF001829FE00DF11D649FE00DD7
:10391000F11D929FF00D839FF00D749FF00D659F38
:10392000F00D9927729FB00DE11DF91F639FB00D37
:10393000E11DF91FBD01CF0111240895AA1BBB1B76
:1039400051E107C0AA1FBB1FA617B70710F0A61B9F
:10395000B70B881F991F5A95A9F780959095BC01C0
:10396000CD010895A1E21A2EAA1BBB1BFD010DC0BB
:10397000AA1FBB1FEE1FFF1FA217B307E407F5071F
:1039800020F0A21BB30BE40BF50B661F771F881FFB
:10399000991F1A9469F760957095809590959B0191
:1039A000AC01BD01CF010895CF93DF93BC018230FC
:1039B000910510F462E070E0A0910305B091040558
:1039C000ED01E0E0F0E040E050E021C08881998125
:1039D0008617970769F48A819B81309719F0938342
:1039E000828304C09093040580930305FE0134C0D4
:1039F0006817790738F44115510519F084179507B0
:103A000008F4AC01FE018A819B819C01E9012097A9
:103A1000E9F641155105A9F1CA01861B970B0497D8
:103A200008F4BA01E0E0F0E02AC08D919C91119772
:103A300084179507F9F46417750781F412968D9130
:103A40009C911397309719F09383828304C09093CD
:103A5000040580930305FD0132964FC0CA01861B01
:103A6000970BFD01E80FF91F6193719302978D93F6
:103A70009C9343C0FD01828193819C01D9011097E1
:103A8000A1F68091010590910205892B41F4809166
:103A9000E9029091EA02909302058093010540911A
:103AA000EB025091EC024115510541F44DB75EB760
:103AB0008091E7029091E802481B590B2091010583
:103AC0003091020524173507B0F4CA01821B930B0D
:103AD0008617970780F0AB014E5F5F4F84179507FD
:103AE00050F0420F531F5093020540930105F90116
:103AF0006193719302C0E0E0F0E0CF01DF91CF91DC
:103B00000895CF93DF93009709F450C0EC012297FA
:103B10001B821A82A0910305B0910405109709F148
:103B200040E050E0AC17BD0708F1BB83AA83FE015B
:103B300021913191E20FF31FAE17BF0779F48D91F8
:103B40009C911197280F391F2E5F3F4F398328838F
:103B500012968D919C9113979B838A8341155105F1
:103B600071F4D0930405C093030520C012968D9183
:103B70009C911397AD01009711F0DC01D3CFFA01AE
:103B8000D383C28321913191E20FF31FCE17DF0758
:103B900069F488819981280F391F2E5F3F4FFA0100
:103BA000318320838A819B8193838283DF91CF91AC
:103BB00008959111089581548A5108F4805E855AC0
:103BC0000895FB01DC0102C001900D92415050406C
:103BD000D8F70895FB01DC018D9181341CF08B3501
:103BE0000CF4805E619161341CF06B350CF4605E06
:103BF000861B611189F3990B0895FC018191861749
:103C000021F08823D9F7992708953197CF01089596
:103C1000FB01DC0101900D920020E1F70895FB010A
:103C200051915523A9F0BF01DC014D914517411178
:103C3000E1F759F4CD010190002049F04D91401574
:103C40004111C9F3FB014111EFCF81E090E00197F1
:103C500008950F931F93CF93DF938C01EB0100978F
:103C600031F46115710519F420E030E038C081E0CD
:103C700090E06EE070E00E94B723FC019C01009789
:103C800071F180E88383209771F0D387C28781E840
:103C900083838091050590910605892B21F4F0938B
:103CA0000605E093050501151105C9F01187008788
:103CB0008381826083838091070590910805892B19
:103CC00071F4F0930805E093070580910905909140
:103CD0000A05892B21F4F0930A05E0930905C9012F
:103CE000DF91CF911F910F910895DF93CF93CDB7BF
:103CF000DEB7FE0135966191719180910705909133
:103D00000805AF010E94DF1ECF91DF9108950F9348
:103D10001F93CF93DF938C01E0910705F091080585
:103D2000838181FF21C0C0E0D0E00DC0E091070594
:103D3000F091080520853185BF01F9010995892B8E
:103D400011F0CFEFDFEFF80181918F01882371F738
:103D5000E0910705F0910805208531858AE0BF01D3
:103D6000F9010995892B11F0CFEFDFEFCE01DF913B
:103D7000CF911F910F910895DF93CF93CDB7DEB709
:103D80002E970FB6F894DEBF0FBECDBF85E08C83B3
:103D90008B899C899A8389839E01295E3F4FCE013E
:103DA00001966D897E89A9010E9494222E960FB6F4
:103DB000F894DEBF0FBECDBFCF91DF9108952F9253
:103DC0003F924F925F926F927F928F929F92AF92AB
:103DD000BF92CF92DF92EF92FF920F931F93DF93E8
:103DE000CF93CDB7DEB72B970FB6F894DEBF0FBEDB
:103DF000CDBF3C012B015A01FC0117821682838141
:103E000081FD03C06FEF7FEFC6C19AE0892E1E01CE
:103E10000894211C311CF3012381F20123FD8591BB
:103E200023FF81912F01882309F4B2C1853239F42F
:103E300023FD859123FF81912F01853229F490E0A4
:103E4000B3010E944524E7CF982FFF24EE24992444
:103E5000FFE1FF15D0F09B3269F09C3228F49032DC
:103E600059F0933291F40EC09D3249F0903369F4C9
:103E700041E024C052E0F52A84E0F82A28C098E006
:103E8000F92A25C0E0E1FE2A22C0F7FC29C0892FCB
:103E900080538A3070F4F6FE05C0989C902C112453
:103EA000980E15C0E89CE02C1124E80EF0E2FF2AE1
:103EB0000EC09E3229F4F6FC6BC140E4F42A07C020
:103EC0009C3619F450E8F52A02C0983649F4F201FC
:103ED00023FD959123FF91912F01992309F0B8CFEC
:103EE000892F8554833018F08052833038F444E0B1
:103EF00050E0A40EB51E5FE359830FC0933631F036
:103F0000933779F0933509F056C020C0F5018081D0
:103F1000898342E050E0A40EB51E610101E010E08B
:103F200012C0F501C080D180F6FC03C06FEF7FEFB7
:103F300002C0692D70E042E050E0A40EB51EC6013B
:103F40000E94F8238C015FE7F52214C0F501C080C0
:103F5000D180F6FC03C06FEF7FEF02C0692D70E0E7
:103F600042E050E0A40EB51EC6010E94E6238C017B
:103F700050E8F52AF3FE07C01AC080E290E0B301D2
:103F80000E944524EA948E2D90E008171907A8F3A3
:103F90000EC0F601F7FC8591F7FE81916F0190E06C
:103FA000B3010E944524E110EA940150104001152C
:103FB000110579F7EAC0943611F0993669F5F7FEE4
:103FC00008C0F501208131814281538184E090E075
:103FD0000AC0F501808191819C01442737FD4095FD
:103FE000542F82E090E0A80EB91E9FE6F92257FFF9
:103FF00009C050954095309521953F4F4F4F5F4FE9
:10400000E0E8FE2ACA01B901A1012AE030E00E94DD
:104010008B24D82ED21840C0953729F41F2D1F7E2F
:104020002AE030E01DC01F2D197F9F3661F09037C8
:1040300020F4983509F0ACC00FC0903739F09837AC
:1040400009F0A6C004C028E030E00AC0106114FDE9
:10405000146020E130E004C014FD166020E132E07D
:1040600017FF08C0F501608171818281938144E06E
:1040700050E008C0F50180819181BC0180E090E0B2
:1040800042E050E0A40EB51EA1010E948B24D82E60
:10409000D2188FE7F82EF122F6FE0BC05EEFF52264
:1040A000D91438F4F4FE07C0F2FC05C08FEEF822F4
:1040B00002C01D2D01C0192DF4FE0DC0FE01ED0D35
:1040C000F11D8081803319F499EEF92208C01F5F39
:1040D000F2FE05C003C08F2D867809F01F5F0F2DFB
:1040E000F3FC14C0F0FE0FC01E1510F09D2C0BC089
:1040F0009D2C9E0C911A1E2D06C080E290E0B3010B
:104100000E9445241F5F1E15C0F304C01E1510F445
:10411000E11A01C0EE2404FF0FC080E390E0B30178
:104120000E94452402FF1DC001FD03C088E790E006
:104130000EC088E590E00BC0802F867891F001FFDB
:1041400002C08BE201C080E2F7FC8DE290E0B30197
:104150000E94452406C080E390E0B3010E944524FC
:104160009A94D914C0F3DA94F101ED0DF11D808118
:1041700090E0B3010E944524DD20A9F706C080E24B
:1041800090E0B3010E944524EA94EE20C1F743CEAB
:10419000F30166817781CB012B960FB6F894DEBFD1
:1041A0000FBECDBFCF91DF911F910F91FF90EF9088
:1041B000DF90CF90BF90AF909F908F907F906F9047
:1041C0005F904F903F902F900895FC0120FD08C014
:1041D00023FD05C022FF02C07383628351834083A5
:1041E0000895EF92FF920F931F9344FF02C033E0B4
:1041F00011C046FF02C034E00DC0DB01FC01AA0F74
:10420000BB1FEE1FFF1F1094D1F76A0F7B1F8E1F7D
:104210009F1F31E0660F771F881F991F3150D1F71C
:104220007B018C01E20EF11C011D111DA8019701FB
:10423000B701CA011F910F91FF90EF9008950F935E
:104240001F93CF93DF938C01C8010E940324EC01DC
:1042500097FD08C00E94D323892BB1F7CE01B80186
:104260000E947124CE01DF91CF911F910F9108958B
:10427000AF92BF92CF92DF92EF92FF920F931F9374
:10428000CF93DF93EC01C62E5A01122F0E94032414
:10429000AC018B3219F08D3251F41068CA9409F4D4
:1042A0006DC0CE010E940324AC0197FD67C06DEF85
:1042B000D62ED1228D2D807301F54033F1F4CA94AE
:1042C00009F447C0CE010E940324AC0197FD41C010
:1042D00082E0D82A483711F0483559F480E4D82ACA
:1042E000CA94B9F1CE010E940324AC0199232CF4A5
:1042F00030C0D6FC02C080E1D82AEE24FF2487011A
:10430000242F2053283088F0D4FC09C02A3068F0CC
:10431000D6FE05C02F7D822F8151863028F0CA013C
:10432000BE010E94712412C02750C801B7014D2D53
:104330000E94F1207B018C0182E0D82ACA9461F0AE
:10434000CE010E940324AC0197FFDACFD1FC04C058
:1043500015C0EE24FF248701D7FE08C010950095F4
:10436000F094E094E11CF11C011D111DC501B80180
:10437000A7012D2D0E94E52081E001C080E0DF91A2
:10438000CF911F910F91FF90EF90DF90CF90BF9052
:10439000AF9008956F927F928F929F92AF92BF924B
:1043A000CF92DF92EF92FF920F931F93DF93CF9301
:1043B000CDB7DEB7A0970FB6F894DEBF0FBECDBF66
:1043C0006C01A62E8A017901FE01319680E2DF019F
:1043D0001D928A95E9F770E030E060E040E050E03F
:1043E0004F01A1E0B0E0F6018381F70183FD259143
:1043F00083FF21917F01222309F47EC02E3519F419
:104400004115510569F1872F90E08417950744F411
:104410002D3551F12D3221F4332329F431E021C01F
:10442000332309F4622F322F832F86958695869544
:10443000F401E80FF11D832F87703D0102C0660C67
:10444000771C8A95E2F7208126292083361711F4FC
:1044500030E007C0361710F43F5FE6CF3150E4CFAD
:1044600071E04F5F5F4FBFCF332319F08E818062C1
:104470008E83772359F0FE0131969E012F5D3F4FC9
:10448000808180958193E217F307D1F7BB24B39421
:104490004E010894811C911CC6010E940324AC01AA
:1044A00097FD22C0869586958695F401E80FF11D4B
:1044B000808190E09A012770307002C095958795B1
:1044C0002A95E2F780FD05C0CA01B6010E94712459
:1044D0000BC00115110519F0D8014D938D01AA9457
:1044E000BB24AA20C9F602C0BB2031F40115110576
:1044F00029F0F801108202C0EE24FF24C701A09623
:104500000FB6F894DEBF0FBECDBFCF91DF911F91E4
:104510000F91FF90EF90DF90CF90BF90AF909F9062
:104520008F907F906F9008956F927F928F929F925D
:10453000AF92BF92CF92DF92EF92FF920F931F93B1
:10454000CF93DF935C016B013A01FC011782168265
:104550008824EAC0812F90E00E94D323892B21F088
:10456000C5010E941F21E0C0153249F4F601F3FC99
:104570006591F3FE61916F01653269F415E2C50141
:104580000E94032497FDDCC0181709F4CDC0B501C3
:104590000E947124DAC06A3219F0162F00E006C0BA
:1045A000F3FC1591F3FE11916F0101E099240FC006
:1045B0000260692D70E080E090E040E20E94F1200E
:1045C000962EF601F3FC1591F3FE11916F01212F48
:1045D00020532A3068F301FD03C099249A9403C044
:1045E000992009F4B2C0183621F01C3699F4F6016E
:1045F0000BC0F601F3FC6591F3FE6191683619F08A
:104600006F01162F07C008600460F3FC1591F3FEDC
:1046100011916F01112309F498C08FE194E1612F8A
:1046200070E00E94DB23892B09F48FC0802F00FFEC
:1046300003C0EE24FF2407C0F301E080F18022E0F4
:1046400030E0620E731E1E3651F4F501468157812B
:1046500060E070E0C701202F0E94E52065C013369E
:1046600091F481FD02C099249394C5010E94032412
:1046700097FD66C0E114F10419F0F70181937F0101
:104680009A9499F74FC01B3559F4C501692DA701BC
:1046900096010E94CA216C01009709F043C03DC0F9
:1046A000C5010E941F2197FD4BC01F3659F11037DD
:1046B00028F4143629F1193639F527C0133719F0C3
:1046C000153711F51DC0C5010E940324EC0197FDAB
:1046D00011C00E94D323892B29F0CE01B5010E947D
:1046E000712408C0E114F10419F0F701C1937F01AE
:1046F0009A9449F7E114F104A9F0F701108212C06D
:10470000006203C0006101C00064C501692DA701FA
:10471000202F0E943821882329F4F501838180739A
:1047200079F413C000FF8394F501F380F601F3FCE4
:104730001591F3FE11916F01112309F00BCF05C004
:10474000882019F42FEF3FEF02C0282D30E0C90177
:10475000DF91CF911F910F91FF90EF90DF90CF905D
:10476000BF90AF909F908F907F906F9008950F9320
:104770001F93CF93DF93689F8001699F100D789FEF
:10478000100D1124C8010E94D41CEC01009729F0DF
:1047900060E070E0A8010E94F123CE01DF91CF918B
:1047A0001F910F910895911114C1803219F0895011
:1047B0008550D0F70895FC010590061621F00020E1
:1047C000D9F7C00108953197CF010895FC010590F4
:1047D000615070400110D8F7809590958E0F9F1F03
:1047E0000895DC0101C06D9341505040E0F70895F9
:1047F000FC016150704001900110D8F780959095B0
:104800008E0F9F1F0895CF93DF93EC014B8140FFE4
:104810001AC046FF0AC04F7B4B838E819F81019651
:104820009F838E838A81282F2BC042FF13C0E8818B
:10483000F9818081282F332727FD309521153105F7
:1048400029F440624B832FEF3FEF1BC03196F98371
:10485000E88311C0EA85FB85CE0109959C0197FF8D
:104860000AC09B812F5F3F4F11F080E201C080E1C1
:10487000892B8B83E8CF8E819F8101969F838E83C6
:1048800030E0C901DF91CF9108950F931F93CF932B
:10489000DF938C01EB018B8181FF1BC082FF0DC078
:1048A0002E813F818C819D812817390764F4E8812E
:1048B000F9810193F983E88306C0E885F985802FA3
:1048C0000995892B31F48E819F8101969F838E8378
:1048D00002C00FEF1FEFC801DF91CF911F910F9121
:1048E00008959C01FB01838180FF11C086FD0FC0EC
:1048F0009FEF2F3F390759F0228380648F7D838398
:104900008681978101979783868330E002C02FEFDD
:104910003FEFC9010895FA01AA27283051F120314B
:1049200081F1E8946F936E7F6E5F7F4F8F4F9F4F43
:10493000AF4FB1E03ED0B4E03CD0670F781F891F85
:104940009A1FA11D680F791F8A1F911DA11D6A0F53
:10495000711D811D911DA11D20D009F468943F9106
:104960002AE0269F11243019305D3193DEF6CF0105
:104970000895462F4770405D4193B3E00FD0C9F7CB
:10498000F6CF462F4F70405D4A3318F0495D31FD38
:104990004052419302D0A9F7EACFB4E0A69597958B
:1049A000879577956795BA95C9F700976105710561
:1049B00008959B01AC010A2E0694579547953795AB
:1049C0002795BA95C9F7620F731F841F951FA01D05
:0C49D0000895992788270895F894FFCFD8
:1049DC003E3E0A0D2053442F53444843204341523A
:1049EC0044204E4F5420464F554E442E20494E5392
:1049FC00455254204120434152442E0D003E3E0A64
:104A0C000D2053442F53444843204D454D4F52598C
:104A1C00204341524420494E495449414C495A4142
:104A2C0054494F4E204641494C5552452120524540
:104A3C005345542054484520424F4152442E0A0DB0
:104A4C00000A0D3E3E20003E3E0A0D2046415433E6
:104A5C00322046494C452053595354454D204E4F16
:104A6C005420464F554E44204F4E20544845204D1F
:104A7C00454D4F525920434152442E0A0D00257387
:104A8C0020257300646972000A0D00203C444952D1
:104A9C003E200020202020202020002025730A0DFD
:104AAC00000A0D2020202020202533642046494C6C
:104ABC004553200A0D20202020202025336420443B
:104ACC0049524543544F524945530A0D006469728B
:104ADC007300766F6C000A0D20566F6C756D652037
:104AEC006C6162656C3A2025730A0D0A00636400E0
:104AFC000A0D204449524543544F525920434841D2
:104B0C004E4745440A0D000A0D2050415448204E92
:104B1C004F5420464F554E440A0D00747970650071
:104B2C000A0D0A2046494C452053495A453A20253E
:104B3C006C642042595445530A0D0A000A0D204654
:104B4C00494C45204E4F5420464F554E440A0D00BB
:104B5C000A0D2000253034642F253032642F253087
:104B6C0032642000253032643A253032643A2530E4
:104B7C00326420003C4449523E202020202020203A
:104B8C00002531316C64200025730D0A20000A0DBC
:104B9C00000A0D253332642046494C4553200A0D3A
:104BAC0025333264204449524543544F52494553AE
:0E4BBC000A0D000200000020000B05000000A2
:00000001FF
